{
  "contractName": "Bridge",
  "abi": [
    {
      "inputs": [
        {
          "internalType": "address",
          "name": "addr",
          "type": "address"
        }
      ],
      "stateMutability": "nonpayable",
      "type": "constructor"
    },
    {
      "inputs": [
        {
          "internalType": "address[]",
          "name": "_addrList",
          "type": "address[]"
        },
        {
          "internalType": "uint256",
          "name": "_amount",
          "type": "uint256"
        }
      ],
      "name": "bulkSend",
      "outputs": [],
      "stateMutability": "nonpayable",
      "type": "function"
    }
  ],
  "bytecode": "0x608060405234801561001057600080fd5b506040516102d43803806102d48339818101604052602081101561003357600080fd5b8101908080519060200190929190505050806000806101000a81548173ffffffffffffffffffffffffffffffffffffffff021916908373ffffffffffffffffffffffffffffffffffffffff16021790555050610240806100946000396000f3fe608060405234801561001057600080fd5b506004361061002b5760003560e01c80639690141914610030575b600080fd5b6100f06004803603604081101561004657600080fd5b810190808035906020019064010000000081111561006357600080fd5b82018360208201111561007557600080fd5b8035906020019184602083028401116401000000008311171561009757600080fd5b919080806020026020016040519081016040528093929190818152602001838360200280828437600081840152601f19601f820116905080830192505050505050509192919290803590602001909291905050506100f2565b005b60008090505b8251811015610205576000809054906101000a900473ffffffffffffffffffffffffffffffffffffffff1673ffffffffffffffffffffffffffffffffffffffff1663a9059cbb84838151811061014a57fe5b6020026020010151846040518363ffffffff1660e01b8152600401808373ffffffffffffffffffffffffffffffffffffffff1673ffffffffffffffffffffffffffffffffffffffff16815260200182815260200192505050602060405180830381600087803b1580156101bc57600080fd5b505af11580156101d0573d6000803e3d6000fd5b505050506040513d60208110156101e657600080fd5b81019080805190602001909291905050505080806001019150506100f8565b50505056fea26469706673582212201ec9be6bbb790abcdab0a6c88ed28f3dc09d281d4af085ac6268c4492e5c666464736f6c63430006020033",
  "source": "pragma solidity >=0.4.21 <0.7.0;\nimport './ERC20_TX.sol';\n\ncontract Ownable {\n    address public owner;\n\n    constructor() public{\n        owner = msg.sender;\n    }\n\n    modifier onlyOwner {\n        require(msg.sender == owner);\n        _;\n    }\n    function transferOwnership(address newOwner) onlyOwner public{\n        if (newOwner != address(0)) {\n            owner = newOwner;\n        }\n    }\n}\ncontract Bridge{\n    ERC20_TX rc_pets;\n    constructor (address addr) public{\n         rc_pets = ERC20_TX(addr);\n    }\n    function bulkSend(address[] memory _addrList, uint _amount) public {\n        for (uint i =0;i<_addrList.length;i++){\n            rc_pets.transfer(_addrList[i], _amount);\n        }\n    }\n}    ",
  "sourcePath": "/Users/mac/Desktop/blockchain-projects/ERC-1400/contracts/Bridge.sol",
  "compiler": {
    "name": "solc",
    "version": "0.6.2+commit.bacdbe57.Emscripten.clang"
  },
  "schemaVersion": "3.2.0",
  "updatedAt": "2020-10-22T13:42:37.218Z",
  "networkType": "ethereum",
  "devdoc": {
    "methods": {}
  },
  "userdoc": {
    "methods": {}
  }
}