{
  "contractName": "Bridge",
  "abi": [
    {
      "inputs": [],
      "stateMutability": "nonpayable",
      "type": "constructor"
    },
    {
      "inputs": [
        {
          "internalType": "address",
          "name": "token",
          "type": "address"
        },
        {
          "internalType": "address[]",
          "name": "_addrList",
          "type": "address[]"
        },
        {
          "internalType": "uint256",
          "name": "_amount",
          "type": "uint256"
        }
      ],
      "name": "bulkSend",
      "outputs": [],
      "stateMutability": "nonpayable",
      "type": "function"
    },
    {
      "inputs": [
        {
          "internalType": "address",
          "name": "token",
          "type": "address"
        },
        {
          "internalType": "address[]",
          "name": "_addrList",
          "type": "address[]"
        },
        {
          "internalType": "uint256[]",
          "name": "_amounts",
          "type": "uint256[]"
        }
      ],
      "name": "bulkSendMultiple",
      "outputs": [],
      "stateMutability": "nonpayable",
      "type": "function"
    }
  ],
  "bytecode": "0x608060405234801561001057600080fd5b50610600806100206000396000f3fe608060405234801561001057600080fd5b50600436106100365760003560e01c806374d659d81461003b578063859d92b11461011d575b600080fd5b61011b6004803603606081101561005157600080fd5b81019080803573ffffffffffffffffffffffffffffffffffffffff1690602001909291908035906020019064010000000081111561008e57600080fd5b8201836020820111156100a057600080fd5b803590602001918460208302840111640100000000831117156100c257600080fd5b919080806020026020016040519081016040528093929190818152602001838360200280828437600081840152601f19601f82011690508083019250505050505050919291929080359060200190929190505050610289565b005b6102876004803603606081101561013357600080fd5b81019080803573ffffffffffffffffffffffffffffffffffffffff1690602001909291908035906020019064010000000081111561017057600080fd5b82018360208201111561018257600080fd5b803590602001918460208302840111640100000000831117156101a457600080fd5b919080806020026020016040519081016040528093929190818152602001838360200280828437600081840152601f19601f8201169050808301925050505050505091929192908035906020019064010000000081111561020457600080fd5b82018360208201111561021657600080fd5b8035906020019184602083028401116401000000008311171561023857600080fd5b919080806020026020016040519081016040528093929190818152602001838360200280828437600081840152601f19601f8201169050808301925050505050505091929192905050506103e2565b005b826000806101000a81548173ffffffffffffffffffffffffffffffffffffffff021916908373ffffffffffffffffffffffffffffffffffffffff16021790555060008090505b82518110156103dc576000809054906101000a900473ffffffffffffffffffffffffffffffffffffffff1673ffffffffffffffffffffffffffffffffffffffff1663a9059cbb84838151811061032157fe5b6020026020010151846040518363ffffffff1660e01b8152600401808373ffffffffffffffffffffffffffffffffffffffff1673ffffffffffffffffffffffffffffffffffffffff16815260200182815260200192505050602060405180830381600087803b15801561039357600080fd5b505af11580156103a7573d6000803e3d6000fd5b505050506040513d60208110156103bd57600080fd5b81019080805190602001909291905050505080806001019150506102cf565b50505050565b826000806101000a81548173ffffffffffffffffffffffffffffffffffffffff021916908373ffffffffffffffffffffffffffffffffffffffff160217905550805182511461047c576040517f08c379a00000000000000000000000000000000000000000000000000000000081526004018080602001828103825260228152602001806105a96022913960400191505060405180910390fd5b60008090505b82518110156105a2576000809054906101000a900473ffffffffffffffffffffffffffffffffffffffff1673ffffffffffffffffffffffffffffffffffffffff1663a9059cbb8483815181106104d457fe5b60200260200101518484815181106104e857fe5b60200260200101516040518363ffffffff1660e01b8152600401808373ffffffffffffffffffffffffffffffffffffffff1673ffffffffffffffffffffffffffffffffffffffff16815260200182815260200192505050602060405180830381600087803b15801561055957600080fd5b505af115801561056d573d6000803e3d6000fd5b505050506040513d602081101561058357600080fd5b8101908080519060200190929190505050508080600101915050610482565b5050505056fe416464726573736573206d75737420657175616c20616d6f756e74732073697a652ea2646970667358221220e201e24c1ce2f40b6b2ecf17f96b5c8c0379e16aab8bfc9c16d1bcc6a05980a964736f6c63430006020033",
  "source": "pragma solidity >=0.4.21 <0.7.0;\nimport './ERC20_TX.sol';\n\ncontract Bridge{\n    ERC20_TX rc_pets;\n    constructor () public{ \n    }\n    function bulkSend(address token, address[] memory _addrList, uint _amount) public {\n        rc_pets = ERC20_TX(token);\n        for (uint i =0;i<_addrList.length;i++){\n            rc_pets.transfer(_addrList[i], _amount);\n        }\n    }\n    function bulkSendMultiple(address token, address[] memory _addrList, uint[] memory _amounts) public {\n        rc_pets = ERC20_TX(token);\n        require(\n            _addrList.length == _amounts.length,\n            \"Addresses must equal amounts size.\"\n        );\n        for (uint i =0;i<_addrList.length;i++){\n            rc_pets.transfer(_addrList[i], _amounts[i]);\n        }\n    }\n}    ",
  "sourcePath": "/Users/mac/Desktop/blockchain-projects/ERC-1400/contracts/Bridge.sol",
  "compiler": {
    "name": "solc",
    "version": "0.6.2+commit.bacdbe57.Emscripten.clang"
  },
  "schemaVersion": "3.2.0",
  "updatedAt": "2020-10-23T09:16:22.056Z",
  "networkType": "ethereum",
  "devdoc": {
    "methods": {}
  },
  "userdoc": {
    "methods": {}
  }
}